{
  "_format": "hh-sol-artifact-1",
  "contractName": "AuctionHouse",
  "sourceName": "Contracts/AuctionHouse.sol",
  "abi": [
    {
      "anonymous": false,
      "inputs": [
        {
          "indexed": false,
          "internalType": "uint256",
          "name": "basketID",
          "type": "uint256"
        },
        {
          "indexed": false,
          "internalType": "address",
          "name": "author",
          "type": "address"
        },
        {
          "indexed": false,
          "internalType": "address",
          "name": "tokenAddy",
          "type": "address"
        },
        {
          "indexed": false,
          "internalType": "uint256",
          "name": "tokenID",
          "type": "uint256"
        }
      ],
      "name": "AddedToBasket",
      "type": "event"
    },
    {
      "anonymous": false,
      "inputs": [
        {
          "indexed": true,
          "internalType": "uint256",
          "name": "basketID",
          "type": "uint256"
        },
        {
          "indexed": false,
          "internalType": "address",
          "name": "sender",
          "type": "address"
        },
        {
          "indexed": false,
          "internalType": "uint256",
          "name": "value",
          "type": "uint256"
        },
        {
          "indexed": false,
          "internalType": "bool",
          "name": "extended",
          "type": "bool"
        }
      ],
      "name": "AuctionBid",
      "type": "event"
    },
    {
      "anonymous": false,
      "inputs": [
        {
          "indexed": true,
          "internalType": "uint256",
          "name": "basketID",
          "type": "uint256"
        },
        {
          "indexed": false,
          "internalType": "uint256",
          "name": "startTime",
          "type": "uint256"
        },
        {
          "indexed": false,
          "internalType": "uint256",
          "name": "endTime",
          "type": "uint256"
        },
        {
          "indexed": false,
          "internalType": "uint256",
          "name": "auctionNumber",
          "type": "uint256"
        }
      ],
      "name": "AuctionCreated",
      "type": "event"
    },
    {
      "anonymous": false,
      "inputs": [
        {
          "indexed": true,
          "internalType": "uint256",
          "name": "basketID",
          "type": "uint256"
        },
        {
          "indexed": false,
          "internalType": "uint256",
          "name": "endTime",
          "type": "uint256"
        }
      ],
      "name": "AuctionExtended",
      "type": "event"
    },
    {
      "anonymous": false,
      "inputs": [
        {
          "indexed": false,
          "internalType": "uint256",
          "name": "minBidIncrementPercentage",
          "type": "uint256"
        }
      ],
      "name": "AuctionMinBidIncrementPercentageUpdated",
      "type": "event"
    },
    {
      "anonymous": false,
      "inputs": [
        {
          "indexed": false,
          "internalType": "uint256",
          "name": "reservePrice",
          "type": "uint256"
        }
      ],
      "name": "AuctionReservePriceUpdated",
      "type": "event"
    },
    {
      "anonymous": false,
      "inputs": [
        {
          "indexed": true,
          "internalType": "uint256",
          "name": "basketID",
          "type": "uint256"
        },
        {
          "indexed": false,
          "internalType": "address",
          "name": "winner",
          "type": "address"
        },
        {
          "indexed": false,
          "internalType": "uint256",
          "name": "amount",
          "type": "uint256"
        }
      ],
      "name": "AuctionSettled",
      "type": "event"
    },
    {
      "anonymous": false,
      "inputs": [
        {
          "indexed": false,
          "internalType": "uint256",
          "name": "timeBuffer",
          "type": "uint256"
        }
      ],
      "name": "AuctionTimeBufferUpdated",
      "type": "event"
    },
    {
      "anonymous": false,
      "inputs": [
        {
          "indexed": true,
          "internalType": "address",
          "name": "previousOwner",
          "type": "address"
        },
        {
          "indexed": true,
          "internalType": "address",
          "name": "newOwner",
          "type": "address"
        }
      ],
      "name": "OwnershipTransferred",
      "type": "event"
    },
    {
      "anonymous": false,
      "inputs": [
        {
          "indexed": false,
          "internalType": "address",
          "name": "account",
          "type": "address"
        }
      ],
      "name": "Paused",
      "type": "event"
    },
    {
      "anonymous": false,
      "inputs": [
        {
          "indexed": false,
          "internalType": "uint256",
          "name": "basketID",
          "type": "uint256"
        },
        {
          "indexed": false,
          "internalType": "address",
          "name": "author",
          "type": "address"
        }
      ],
      "name": "Retrieved",
      "type": "event"
    },
    {
      "anonymous": false,
      "inputs": [
        {
          "indexed": false,
          "internalType": "uint256",
          "name": "basketID",
          "type": "uint256"
        }
      ],
      "name": "SentToAuction",
      "type": "event"
    },
    {
      "anonymous": false,
      "inputs": [
        {
          "indexed": false,
          "internalType": "address",
          "name": "account",
          "type": "address"
        }
      ],
      "name": "Unpaused",
      "type": "event"
    },
    {
      "anonymous": false,
      "inputs": [
        {
          "indexed": false,
          "internalType": "uint256",
          "name": "basketID",
          "type": "uint256"
        },
        {
          "indexed": false,
          "internalType": "address",
          "name": "author",
          "type": "address"
        }
      ],
      "name": "noBidders",
      "type": "event"
    },
    {
      "inputs": [
        {
          "internalType": "address",
          "name": "tokenAddy",
          "type": "address"
        },
        {
          "internalType": "uint256",
          "name": "tokenID",
          "type": "uint256"
        }
      ],
      "name": "addToBasket",
      "outputs": [],
      "stateMutability": "nonpayable",
      "type": "function"
    },
    {
      "inputs": [],
      "name": "auction",
      "outputs": [
        {
          "internalType": "uint256",
          "name": "basketID",
          "type": "uint256"
        },
        {
          "internalType": "uint256",
          "name": "amount",
          "type": "uint256"
        },
        {
          "internalType": "uint256",
          "name": "startTime",
          "type": "uint256"
        },
        {
          "internalType": "uint256",
          "name": "endTime",
          "type": "uint256"
        },
        {
          "internalType": "address payable",
          "name": "bidder",
          "type": "address"
        },
        {
          "internalType": "bool",
          "name": "settled",
          "type": "bool"
        }
      ],
      "stateMutability": "view",
      "type": "function"
    },
    {
      "inputs": [],
      "name": "auctionNumber",
      "outputs": [
        {
          "internalType": "uint256",
          "name": "",
          "type": "uint256"
        }
      ],
      "stateMutability": "view",
      "type": "function"
    },
    {
      "inputs": [
        {
          "internalType": "uint256",
          "name": "basketID",
          "type": "uint256"
        }
      ],
      "name": "createBid",
      "outputs": [],
      "stateMutability": "payable",
      "type": "function"
    },
    {
      "inputs": [],
      "name": "createNewAuction",
      "outputs": [],
      "stateMutability": "nonpayable",
      "type": "function"
    },
    {
      "inputs": [],
      "name": "devs",
      "outputs": [
        {
          "internalType": "address",
          "name": "",
          "type": "address"
        }
      ],
      "stateMutability": "view",
      "type": "function"
    },
    {
      "inputs": [],
      "name": "duration",
      "outputs": [
        {
          "internalType": "uint256",
          "name": "",
          "type": "uint256"
        }
      ],
      "stateMutability": "view",
      "type": "function"
    },
    {
      "inputs": [
        {
          "internalType": "address",
          "name": "_weth",
          "type": "address"
        },
        {
          "internalType": "address payable",
          "name": "_devs",
          "type": "address"
        },
        {
          "internalType": "uint256",
          "name": "_timeBuffer",
          "type": "uint256"
        },
        {
          "internalType": "uint256",
          "name": "_reservePrice",
          "type": "uint256"
        },
        {
          "internalType": "uint8",
          "name": "_minBidIncrementPercentage",
          "type": "uint8"
        },
        {
          "internalType": "uint256",
          "name": "_duration",
          "type": "uint256"
        }
      ],
      "name": "initialize",
      "outputs": [],
      "stateMutability": "nonpayable",
      "type": "function"
    },
    {
      "inputs": [],
      "name": "minBidIncrementPercentage",
      "outputs": [
        {
          "internalType": "uint8",
          "name": "",
          "type": "uint8"
        }
      ],
      "stateMutability": "view",
      "type": "function"
    },
    {
      "inputs": [],
      "name": "owner",
      "outputs": [
        {
          "internalType": "address",
          "name": "",
          "type": "address"
        }
      ],
      "stateMutability": "view",
      "type": "function"
    },
    {
      "inputs": [],
      "name": "pause",
      "outputs": [],
      "stateMutability": "nonpayable",
      "type": "function"
    },
    {
      "inputs": [],
      "name": "paused",
      "outputs": [
        {
          "internalType": "bool",
          "name": "",
          "type": "bool"
        }
      ],
      "stateMutability": "view",
      "type": "function"
    },
    {
      "inputs": [],
      "name": "renounceOwnership",
      "outputs": [],
      "stateMutability": "nonpayable",
      "type": "function"
    },
    {
      "inputs": [],
      "name": "reservePrice",
      "outputs": [
        {
          "internalType": "uint256",
          "name": "",
          "type": "uint256"
        }
      ],
      "stateMutability": "view",
      "type": "function"
    },
    {
      "inputs": [
        {
          "internalType": "uint256",
          "name": "id",
          "type": "uint256"
        }
      ],
      "name": "retrieve",
      "outputs": [],
      "stateMutability": "nonpayable",
      "type": "function"
    },
    {
      "inputs": [
        {
          "internalType": "uint8",
          "name": "_minBidIncrementPercentage",
          "type": "uint8"
        }
      ],
      "name": "setMinBidIncrementPercentage",
      "outputs": [],
      "stateMutability": "nonpayable",
      "type": "function"
    },
    {
      "inputs": [
        {
          "internalType": "uint256",
          "name": "_reservePrice",
          "type": "uint256"
        }
      ],
      "name": "setReservePrice",
      "outputs": [],
      "stateMutability": "nonpayable",
      "type": "function"
    },
    {
      "inputs": [
        {
          "internalType": "uint256",
          "name": "_timeBuffer",
          "type": "uint256"
        }
      ],
      "name": "setTimeBuffer",
      "outputs": [],
      "stateMutability": "nonpayable",
      "type": "function"
    },
    {
      "inputs": [],
      "name": "settleAuction",
      "outputs": [],
      "stateMutability": "nonpayable",
      "type": "function"
    },
    {
      "inputs": [],
      "name": "timeBuffer",
      "outputs": [
        {
          "internalType": "uint256",
          "name": "",
          "type": "uint256"
        }
      ],
      "stateMutability": "view",
      "type": "function"
    },
    {
      "inputs": [
        {
          "internalType": "address",
          "name": "newOwner",
          "type": "address"
        }
      ],
      "name": "transferOwnership",
      "outputs": [],
      "stateMutability": "nonpayable",
      "type": "function"
    },
    {
      "inputs": [],
      "name": "unpause",
      "outputs": [],
      "stateMutability": "nonpayable",
      "type": "function"
    },
    {
      "inputs": [],
      "name": "weth",
      "outputs": [
        {
          "internalType": "address",
          "name": "",
          "type": "address"
        }
      ],
      "stateMutability": "view",
      "type": "function"
    }
  ],
  "bytecode": "0x6080604052600060ca55600060d15534801561001a57600080fd5b50613a728061002a6000396000f3fe6080604052600436106101405760003560e01c80638317eeec116100b6578063a4d0a17e1161006f578063a4d0a17e146103bc578063b296024d146103d3578063ce9c7c0d146103fe578063db2e1eed14610427578063ec91f2a414610452578063f2fde38b1461047d57610140565b80638317eeec146102d45780638456cb59146102fd57806387f49f54146103145780638da5cb5b1461033d5780638f88708b146103685780639a96f8291461039157610140565b80635c975abb116101085780635c975abb146101f25780636255ca281461021d578063659dd2b4146102485780637120334b14610264578063715018a61461028d5780637d9f6db5146102a457610140565b80630fb5a6b41461014557806322753fa41461017057806336ebdb38146101875780633f4ba83a146101b05780633fc8cef3146101c7575b600080fd5b34801561015157600080fd5b5061015a6104a6565b60405161016791906126da565b60405180910390f35b34801561017c57600080fd5b506101856104ac565b005b34801561019357600080fd5b506101ae60048036038101906101a99190612733565b6105b2565b005b3480156101bc57600080fd5b506101c5610683565b005b3480156101d357600080fd5b506101dc61073a565b6040516101e991906127a1565b60405180910390f35b3480156101fe57600080fd5b50610207610760565b60405161021491906127d7565b60405180910390f35b34801561022957600080fd5b50610232610777565b60405161023f91906126da565b60405180910390f35b610262600480360381019061025d919061281e565b61077d565b005b34801561027057600080fd5b5061028b6004803603810190610286919061281e565b610b32565b005b34801561029957600080fd5b506102a2610bef565b005b3480156102b057600080fd5b506102b9610c77565b6040516102cb9695949392919061286c565b60405180910390f35b3480156102e057600080fd5b506102fb60048036038101906102f691906128f9565b610cce565b005b34801561030957600080fd5b50610312610ede565b005b34801561032057600080fd5b5061033b60048036038101906103369190612965565b610f64565b005b34801561034957600080fd5b50610352611118565b60405161035f91906127a1565b60405180910390f35b34801561037457600080fd5b5061038f600480360381019061038a919061281e565b611142565b005b34801561039d57600080fd5b506103a66114fd565b6040516103b391906127a1565b60405180910390f35b3480156103c857600080fd5b506103d1611523565b005b3480156103df57600080fd5b506103e8611583565b6040516103f59190612a01565b60405180910390f35b34801561040a57600080fd5b506104256004803603810190610420919061281e565b611596565b005b34801561043357600080fd5b5061043c611653565b60405161044991906126da565b60405180910390f35b34801561045e57600080fd5b50610467611659565b60405161047491906126da565b60405180910390f35b34801561048957600080fd5b506104a4600480360381019061049f9190612a1c565b61165f565b005b60d05481565b600260655414156104f2576040517f08c379a00000000000000000000000000000000000000000000000000000000081526004016104e990612aa6565b60405180910390fd5b6002606581905550610502610760565b15610542576040517f08c379a000000000000000000000000000000000000000000000000000000000815260040161053990612b12565b60405180910390fd5b600060d15411156105a05760d260040160149054906101000a900460ff1661059f576040517f08c379a000000000000000000000000000000000000000000000000000000000815260040161059690612ba4565b60405180910390fd5b5b6105a8611757565b6001606581905550565b6105ba6118b6565b73ffffffffffffffffffffffffffffffffffffffff166105d8611118565b73ffffffffffffffffffffffffffffffffffffffff161461062e576040517f08c379a000000000000000000000000000000000000000000000000000000000815260040161062590612c10565b60405180910390fd5b8060cf60006101000a81548160ff021916908360ff1602179055507fec5ccd96cc77b6219e9d44143df916af68fc169339ea7de5008ff15eae13450d816040516106789190612c6b565b60405180910390a150565b61068b6118b6565b73ffffffffffffffffffffffffffffffffffffffff166106a9611118565b73ffffffffffffffffffffffffffffffffffffffff16146106ff576040517f08c379a00000000000000000000000000000000000000000000000000000000081526004016106f690612c10565b60405180910390fd5b6107076118be565b600060d260020154148061072a575060d260040160149054906101000a900460ff165b1561073857610737611757565b5b565b60cb60009054906101000a900473ffffffffffffffffffffffffffffffffffffffff1681565b6000603360009054906101000a900460ff16905090565b60d15481565b600260655414156107c3576040517f08c379a00000000000000000000000000000000000000000000000000000000081526004016107ba90612aa6565b60405180910390fd5b6002606581905550600060d26040518060c0016040529081600082015481526020016001820154815260200160028201548152602001600382015481526020016004820160009054906101000a900473ffffffffffffffffffffffffffffffffffffffff1673ffffffffffffffffffffffffffffffffffffffff1673ffffffffffffffffffffffffffffffffffffffff1681526020016004820160149054906101000a900460ff1615151515815250509050818160000151146108bb576040517f08c379a00000000000000000000000000000000000000000000000000000000081526004016108b290612cd2565b60405180910390fd5b80606001514210610901576040517f08c379a00000000000000000000000000000000000000000000000000000000081526004016108f890612d3e565b60405180910390fd5b60ce54341015610946576040517f08c379a000000000000000000000000000000000000000000000000000000000815260040161093d90612daa565b60405180910390fd5b606460cf60009054906101000a900460ff1660ff16826020015161096a9190612df9565b6109749190612e82565b81602001516109839190612eb3565b3410156109c5576040517f08c379a00000000000000000000000000000000000000000000000000000000081526004016109bc90612f7b565b60405180910390fd5b600081608001519050600073ffffffffffffffffffffffffffffffffffffffff168173ffffffffffffffffffffffffffffffffffffffff1614610a1157610a10818360200151611960565b5b3460d2600101819055503360d260040160006101000a81548173ffffffffffffffffffffffffffffffffffffffff021916908373ffffffffffffffffffffffffffffffffffffffff160217905550600060cd54428460600151610a749190612f9b565b1090508015610a9d5760cd5442610a8b9190612eb3565b836060018181525060d2600301819055505b82600001517f1159164c56f277e6fc99c11731bd380e0347deb969b75523398734c252706ea3333484604051610ad593929190612fcf565b60405180910390a28015610b245782600001517f6e912a3a9105bdd2af817ba5adc14e6c127c1035b5b648faa29ca0d58ab8ff4e8460600151604051610b1b91906126da565b60405180910390a25b505050600160658190555050565b610b3a6118b6565b73ffffffffffffffffffffffffffffffffffffffff16610b58611118565b73ffffffffffffffffffffffffffffffffffffffff1614610bae576040517f08c379a0000000000000000000000000000000000000000000000000000000008152600401610ba590612c10565b60405180910390fd5b8060cd819055507f1b55d9f7002bda4490f467e326f22a4a847629c0f2d1ed421607d318d25b410d81604051610be491906126da565b60405180910390a150565b610bf76118b6565b73ffffffffffffffffffffffffffffffffffffffff16610c15611118565b73ffffffffffffffffffffffffffffffffffffffff1614610c6b576040517f08c379a0000000000000000000000000000000000000000000000000000000008152600401610c6290612c10565b60405180910390fd5b610c756000611aa6565b565b60d28060000154908060010154908060020154908060030154908060040160009054906101000a900473ffffffffffffffffffffffffffffffffffffffff16908060040160149054906101000a900460ff16905086565b8173ffffffffffffffffffffffffffffffffffffffff166323b872dd3330846040518463ffffffff1660e01b8152600401610d0b93929190613006565b600060405180830381600087803b158015610d2557600080fd5b505af1158015610d39573d6000803e3d6000fd5b505050506000604051806080016040528060016003811115610d5e57610d5d61303d565b5b81526020013373ffffffffffffffffffffffffffffffffffffffff1681526020018473ffffffffffffffffffffffffffffffffffffffff16815260200183815250905060ca6000815480929190610db49061306c565b91905055508060c9600060ca54815260200190815260200160002060008201518160000160006101000a81548160ff02191690836003811115610dfa57610df961303d565b5b021790555060208201518160000160016101000a81548173ffffffffffffffffffffffffffffffffffffffff021916908373ffffffffffffffffffffffffffffffffffffffff16021790555060408201518160010160006101000a81548173ffffffffffffffffffffffffffffffffffffffff021916908373ffffffffffffffffffffffffffffffffffffffff160217905550606082015181600201559050507fb7f437a539029447c87fa6684c2e4319b223f16d4dd53329cd4433b1e6331ed760ca54338585604051610ed194939291906130b5565b60405180910390a1505050565b610ee66118b6565b73ffffffffffffffffffffffffffffffffffffffff16610f04611118565b73ffffffffffffffffffffffffffffffffffffffff1614610f5a576040517f08c379a0000000000000000000000000000000000000000000000000000000008152600401610f5190612c10565b60405180910390fd5b610f62611b6c565b565b600060019054906101000a900460ff16610f8c5760008054906101000a900460ff1615610f95565b610f94611c0f565b5b610fd4576040517f08c379a0000000000000000000000000000000000000000000000000000000008152600401610fcb9061316c565b60405180910390fd5b60008060019054906101000a900460ff161590508015611024576001600060016101000a81548160ff02191690831515021790555060016000806101000a81548160ff0219169083151502179055505b61102c611c20565b611034611c79565b61103c611cd2565b8660cb60006101000a81548173ffffffffffffffffffffffffffffffffffffffff021916908373ffffffffffffffffffffffffffffffffffffffff1602179055508560cc60006101000a81548173ffffffffffffffffffffffffffffffffffffffff021916908373ffffffffffffffffffffffffffffffffffffffff1602179055508460cd819055508360ce819055508260cf60006101000a81548160ff021916908360ff1602179055508160d081905550801561110f5760008060016101000a81548160ff0219169083151502179055505b50505050505050565b6000609760009054906101000a900473ffffffffffffffffffffffffffffffffffffffff16905090565b600060c960008381526020019081526020016000206040518060800160405290816000820160009054906101000a900460ff1660038111156111875761118661303d565b5b60038111156111995761119861303d565b5b81526020016000820160019054906101000a900473ffffffffffffffffffffffffffffffffffffffff1673ffffffffffffffffffffffffffffffffffffffff1673ffffffffffffffffffffffffffffffffffffffff1681526020016001820160009054906101000a900473ffffffffffffffffffffffffffffffffffffffff1673ffffffffffffffffffffffffffffffffffffffff1673ffffffffffffffffffffffffffffffffffffffff1681526020016002820154815250509050806020015173ffffffffffffffffffffffffffffffffffffffff163373ffffffffffffffffffffffffffffffffffffffff16146112c7576040517f08c379a00000000000000000000000000000000000000000000000000000000081526004016112be906131d8565b60405180910390fd5b600060038111156112db576112da61303d565b5b816000015160038111156112f2576112f161303d565b5b1415611333576040517f08c379a000000000000000000000000000000000000000000000000000000000815260040161132a90613244565b60405180910390fd5b600260038111156113475761134661303d565b5b8160000151600381111561135e5761135d61303d565b5b141561139f576040517f08c379a0000000000000000000000000000000000000000000000000000000008152600401611396906132b0565b60405180910390fd5b6003808111156113b2576113b161303d565b5b816000015160038111156113c9576113c861303d565b5b141561140a576040517f08c379a00000000000000000000000000000000000000000000000000000000081526004016114019061331c565b60405180910390fd5b806040015173ffffffffffffffffffffffffffffffffffffffff166323b872dd303384606001516040518463ffffffff1660e01b815260040161144f93929190613006565b600060405180830381600087803b15801561146957600080fd5b505af115801561147d573d6000803e3d6000fd5b50505050600260c9600084815260200190815260200160002060000160006101000a81548160ff021916908360038111156114bb576114ba61303d565b5b02179055507f1f19450d6dc19466ae377412107c8b9ea5846bf7933b3d1d31cd25f1854a21b882336040516114f192919061333c565b60405180910390a15050565b60cc60009054906101000a900473ffffffffffffffffffffffffffffffffffffffff1681565b60026065541415611569576040517f08c379a000000000000000000000000000000000000000000000000000000000815260040161156090612aa6565b60405180910390fd5b6002606581905550611579611d2b565b6001606581905550565b60cf60009054906101000a900460ff1681565b61159e6118b6565b73ffffffffffffffffffffffffffffffffffffffff166115bc611118565b73ffffffffffffffffffffffffffffffffffffffff1614611612576040517f08c379a000000000000000000000000000000000000000000000000000000000815260040161160990612c10565b60405180910390fd5b8060ce819055507f6ab2e127d7fdf53b8f304e59d3aab5bfe97979f52a85479691a6fab27a28a6b28160405161164891906126da565b60405180910390a150565b60ce5481565b60cd5481565b6116676118b6565b73ffffffffffffffffffffffffffffffffffffffff16611685611118565b73ffffffffffffffffffffffffffffffffffffffff16146116db576040517f08c379a00000000000000000000000000000000000000000000000000000000081526004016116d290612c10565b60405180910390fd5b600073ffffffffffffffffffffffffffffffffffffffff168173ffffffffffffffffffffffffffffffffffffffff16141561174b576040517f08c379a0000000000000000000000000000000000000000000000000000000008152600401611742906133d7565b60405180910390fd5b61175481611aa6565b50565b6000611761612285565b90506000429050600060d054826117789190612eb3565b90506040518060c0016040528084815260200160008152602001838152602001828152602001600073ffffffffffffffffffffffffffffffffffffffff1681526020016000151581525060d26000820151816000015560208201518160010155604082015181600201556060820151816003015560808201518160040160006101000a81548173ffffffffffffffffffffffffffffffffffffffff021916908373ffffffffffffffffffffffffffffffffffffffff16021790555060a08201518160040160146101000a81548160ff02191690831515021790555090505060d160008154809291906118699061306c565b919050555060d2600001547fa9c8dfcda5664a5a124c713e386da27de87432d5b668e79458501eb296389ba7838360d1546040516118a9939291906133f7565b60405180910390a2505050565b600033905090565b6118c6610760565b611905576040517f08c379a00000000000000000000000000000000000000000000000000000000081526004016118fc9061347a565b60405180910390fd5b6000603360006101000a81548160ff0219169083151502179055507f5db9ee0a495bf2e6ff9c91a7834c1ba4fdd244a5e8aa4e537bd38aeae4b073aa6119496118b6565b60405161195691906127a1565b60405180910390a1565b61196a8282612457565b611aa25760cb60009054906101000a900473ffffffffffffffffffffffffffffffffffffffff1673ffffffffffffffffffffffffffffffffffffffff1663d0e30db0826040518263ffffffff1660e01b81526004016000604051808303818588803b1580156119d857600080fd5b505af11580156119ec573d6000803e3d6000fd5b505050505060cb60009054906101000a900473ffffffffffffffffffffffffffffffffffffffff1673ffffffffffffffffffffffffffffffffffffffff1663a9059cbb83836040518363ffffffff1660e01b8152600401611a4e92919061349a565b602060405180830381600087803b158015611a6857600080fd5b505af1158015611a7c573d6000803e3d6000fd5b505050506040513d601f19601f82011682018060405250810190611aa091906134ef565b505b5050565b6000609760009054906101000a900473ffffffffffffffffffffffffffffffffffffffff16905081609760006101000a81548173ffffffffffffffffffffffffffffffffffffffff021916908373ffffffffffffffffffffffffffffffffffffffff1602179055508173ffffffffffffffffffffffffffffffffffffffff168173ffffffffffffffffffffffffffffffffffffffff167f8be0079c531659141344cd1fd0a4f28419497f9722a3daafe3b4186f6b6457e060405160405180910390a35050565b611b74610760565b15611bb4576040517f08c379a0000000000000000000000000000000000000000000000000000000008152600401611bab90612b12565b60405180910390fd5b6001603360006101000a81548160ff0219169083151502179055507f62e78cea01bee320cd4e420270b5ea74000d11b0c9f74754ebdbfc544b05a258611bf86118b6565b604051611c0591906127a1565b60405180910390a1565b6000611c1a30612522565b15905090565b600060019054906101000a900460ff16611c6f576040517f08c379a0000000000000000000000000000000000000000000000000000000008152600401611c669061358e565b60405180910390fd5b611c77612545565b565b600060019054906101000a900460ff16611cc8576040517f08c379a0000000000000000000000000000000000000000000000000000000008152600401611cbf9061358e565b60405180910390fd5b611cd06125b1565b565b600060019054906101000a900460ff16611d21576040517f08c379a0000000000000000000000000000000000000000000000000000000008152600401611d189061358e565b60405180910390fd5b611d2961260a565b565b600060d26040518060c0016040529081600082015481526020016001820154815260200160028201548152602001600382015481526020016004820160009054906101000a900473ffffffffffffffffffffffffffffffffffffffff1673ffffffffffffffffffffffffffffffffffffffff1673ffffffffffffffffffffffffffffffffffffffff1681526020016004820160149054906101000a900460ff1615151515815250509050600060c96000836000015181526020019081526020016000206040518060800160405290816000820160009054906101000a900460ff166003811115611e1e57611e1d61303d565b5b6003811115611e3057611e2f61303d565b5b81526020016000820160019054906101000a900473ffffffffffffffffffffffffffffffffffffffff1673ffffffffffffffffffffffffffffffffffffffff1673ffffffffffffffffffffffffffffffffffffffff1681526020016001820160009054906101000a900473ffffffffffffffffffffffffffffffffffffffff1673ffffffffffffffffffffffffffffffffffffffff1673ffffffffffffffffffffffffffffffffffffffff1681526020016002820154815250509050600082604001511415611f34576040517f08c379a0000000000000000000000000000000000000000000000000000000008152600401611f2b906135fa565b60405180910390fd5b8160a0015115611f79576040517f08c379a0000000000000000000000000000000000000000000000000000000008152600401611f7090613666565b60405180910390fd5b8160600151421015611fc0576040517f08c379a0000000000000000000000000000000000000000000000000000000008152600401611fb7906136d2565b60405180910390fd5b600160d260040160146101000a81548160ff021916908315150217905550600073ffffffffffffffffffffffffffffffffffffffff16826080015173ffffffffffffffffffffffffffffffffffffffff16141561211b57806040015173ffffffffffffffffffffffffffffffffffffffff166323b872dd30836020015184606001516040518463ffffffff1660e01b815260040161206093929190613006565b600060405180830381600087803b15801561207a57600080fd5b505af115801561208e573d6000803e3d6000fd5b50505050600260c960008460000151815260200190815260200160002060000160006101000a81548160ff021916908360038111156120d0576120cf61303d565b5b02179055507fe876f5a52208a1b99a1aa81232fe68c485631c9fe0d2bcd816e4b30233df56228260000151826020015160405161210e92919061333c565b60405180910390a16121c8565b806040015173ffffffffffffffffffffffffffffffffffffffff166323b872dd30846080015184606001516040518463ffffffff1660e01b815260040161216493929190613747565b600060405180830381600087803b15801561217e57600080fd5b505af1158015612192573d6000803e3d6000fd5b505050506003816000019060038111156121af576121ae61303d565b5b908160038111156121c3576121c261303d565b5b815250505b60008260200151111561223b576000600a83602001516121e89190612e82565b905060008184602001516121fc9190612f9b565b905061222a60cc60009054906101000a900473ffffffffffffffffffffffffffffffffffffffff1683611960565b612238836020015182611960565b50505b81600001517fc9f72b276a388619c6d185d146697036241880c36654b1a3ffdad07c24038d998360800151846020015160405161227992919061377e565b60405180910390a25050565b60008060ca54116122cb576040517f08c379a00000000000000000000000000000000000000000000000000000000081526004016122c2906137f3565b60405180910390fd5b600080600090505b60ca5481101561234f576122e561266b565b9150600160038111156122fb576122fa61303d565b5b60c9600084815260200190815260200160002060000160009054906101000a900460ff1660038111156123315761233061303d565b5b141561233c5761234f565b80806123479061306c565b9150506122d3565b50600160038111156123645761236361303d565b5b60c9600083815260200190815260200160002060000160009054906101000a900460ff16600381111561239a5761239961303d565b5b146123da576040517f08c379a00000000000000000000000000000000000000000000000000000000081526004016123d190613885565b60405180910390fd5b600060c9600083815260200190815260200160002060000160006101000a81548160ff021916908360038111156124145761241361303d565b5b02179055507f6556302548a4532c90104c00812b7772c6022f1bd7c4cfac65cd1799c764d9c58160405161244891906126da565b60405180910390a18091505090565b6000808373ffffffffffffffffffffffffffffffffffffffff168361753090600067ffffffffffffffff811115612491576124906138a5565b5b6040519080825280601f01601f1916602001820160405280156124c35781602001600182028036833780820191505090505b506040516124d1919061394e565b600060405180830381858888f193505050503d806000811461250f576040519150601f19603f3d011682016040523d82523d6000602084013e612514565b606091505b505090508091505092915050565b6000808273ffffffffffffffffffffffffffffffffffffffff163b119050919050565b600060019054906101000a900460ff16612594576040517f08c379a000000000000000000000000000000000000000000000000000000000815260040161258b9061358e565b60405180910390fd5b6000603360006101000a81548160ff021916908315150217905550565b600060019054906101000a900460ff16612600576040517f08c379a00000000000000000000000000000000000000000000000000000000081526004016125f79061358e565b60405180910390fd5b6001606581905550565b600060019054906101000a900460ff16612659576040517f08c379a00000000000000000000000000000000000000000000000000000000081526004016126509061358e565b60405180910390fd5b6126696126646118b6565b611aa6565b565b600080423344604051602001612683939291906139ce565b6040516020818303038152906040528051906020012060001c9050600160ca54826126ae9190613a0b565b6126b89190612eb3565b90508091505090565b6000819050919050565b6126d4816126c1565b82525050565b60006020820190506126ef60008301846126cb565b92915050565b600080fd5b600060ff82169050919050565b612710816126fa565b811461271b57600080fd5b50565b60008135905061272d81612707565b92915050565b600060208284031215612749576127486126f5565b5b60006127578482850161271e565b91505092915050565b600073ffffffffffffffffffffffffffffffffffffffff82169050919050565b600061278b82612760565b9050919050565b61279b81612780565b82525050565b60006020820190506127b66000830184612792565b92915050565b60008115159050919050565b6127d1816127bc565b82525050565b60006020820190506127ec60008301846127c8565b92915050565b6127fb816126c1565b811461280657600080fd5b50565b600081359050612818816127f2565b92915050565b600060208284031215612834576128336126f5565b5b600061284284828501612809565b91505092915050565b600061285682612760565b9050919050565b6128668161284b565b82525050565b600060c08201905061288160008301896126cb565b61288e60208301886126cb565b61289b60408301876126cb565b6128a860608301866126cb565b6128b5608083018561285d565b6128c260a08301846127c8565b979650505050505050565b6128d681612780565b81146128e157600080fd5b50565b6000813590506128f3816128cd565b92915050565b600080604083850312156129105761290f6126f5565b5b600061291e858286016128e4565b925050602061292f85828601612809565b9150509250929050565b6129428161284b565b811461294d57600080fd5b50565b60008135905061295f81612939565b92915050565b60008060008060008060c08789031215612982576129816126f5565b5b600061299089828a016128e4565b96505060206129a189828a01612950565b95505060406129b289828a01612809565b94505060606129c389828a01612809565b93505060806129d489828a0161271e565b92505060a06129e589828a01612809565b9150509295509295509295565b6129fb816126fa565b82525050565b6000602082019050612a1660008301846129f2565b92915050565b600060208284031215612a3257612a316126f5565b5b6000612a40848285016128e4565b91505092915050565b600082825260208201905092915050565b7f5265656e7472616e637947756172643a207265656e7472616e742063616c6c00600082015250565b6000612a90601f83612a49565b9150612a9b82612a5a565b602082019050919050565b60006020820190508181036000830152612abf81612a83565b9050919050565b7f5061757361626c653a2070617573656400000000000000000000000000000000600082015250565b6000612afc601083612a49565b9150612b0782612ac6565b602082019050919050565b60006020820190508181036000830152612b2b81612aef565b9050919050565b7f50726576696f75732061756374696f6e20686173206e6f74206265656e20736560008201527f74746c6564000000000000000000000000000000000000000000000000000000602082015250565b6000612b8e602583612a49565b9150612b9982612b32565b604082019050919050565b60006020820190508181036000830152612bbd81612b81565b9050919050565b7f4f776e61626c653a2063616c6c6572206973206e6f7420746865206f776e6572600082015250565b6000612bfa602083612a49565b9150612c0582612bc4565b602082019050919050565b60006020820190508181036000830152612c2981612bed565b9050919050565b6000819050919050565b6000612c55612c50612c4b846126fa565b612c30565b6126c1565b9050919050565b612c6581612c3a565b82525050565b6000602082019050612c806000830184612c5c565b92915050565b7f4e4654206e6f7420757020666f722061756374696f6e00000000000000000000600082015250565b6000612cbc601683612a49565b9150612cc782612c86565b602082019050919050565b60006020820190508181036000830152612ceb81612caf565b9050919050565b7f41756374696f6e20657870697265640000000000000000000000000000000000600082015250565b6000612d28600f83612a49565b9150612d3382612cf2565b602082019050919050565b60006020820190508181036000830152612d5781612d1b565b9050919050565b7f4d7573742073656e64206174206c656173742072657365727665507269636500600082015250565b6000612d94601f83612a49565b9150612d9f82612d5e565b602082019050919050565b60006020820190508181036000830152612dc381612d87565b9050919050565b7f4e487b7100000000000000000000000000000000000000000000000000000000600052601160045260246000fd5b6000612e04826126c1565b9150612e0f836126c1565b9250817fffffffffffffffffffffffffffffffffffffffffffffffffffffffffffffffff0483118215151615612e4857612e47612dca565b5b828202905092915050565b7f4e487b7100000000000000000000000000000000000000000000000000000000600052601260045260246000fd5b6000612e8d826126c1565b9150612e98836126c1565b925082612ea857612ea7612e53565b5b828204905092915050565b6000612ebe826126c1565b9150612ec9836126c1565b9250827fffffffffffffffffffffffffffffffffffffffffffffffffffffffffffffffff03821115612efe57612efd612dca565b5b828201905092915050565b7f4d7573742073656e64206d6f7265207468616e206c617374206269642062792060008201527f6d696e426964496e6372656d656e7450657263656e7461676520616d6f756e74602082015250565b6000612f65604083612a49565b9150612f7082612f09565b604082019050919050565b60006020820190508181036000830152612f9481612f58565b9050919050565b6000612fa6826126c1565b9150612fb1836126c1565b925082821015612fc457612fc3612dca565b5b828203905092915050565b6000606082019050612fe46000830186612792565b612ff160208301856126cb565b612ffe60408301846127c8565b949350505050565b600060608201905061301b6000830186612792565b6130286020830185612792565b61303560408301846126cb565b949350505050565b7f4e487b7100000000000000000000000000000000000000000000000000000000600052602160045260246000fd5b6000613077826126c1565b91507fffffffffffffffffffffffffffffffffffffffffffffffffffffffffffffffff8214156130aa576130a9612dca565b5b600182019050919050565b60006080820190506130ca60008301876126cb565b6130d76020830186612792565b6130e46040830185612792565b6130f160608301846126cb565b95945050505050565b7f496e697469616c697a61626c653a20636f6e747261637420697320616c72656160008201527f647920696e697469616c697a6564000000000000000000000000000000000000602082015250565b6000613156602e83612a49565b9150613161826130fa565b604082019050919050565b6000602082019050818103600083015261318581613149565b9050919050565b7f4f6e6c7920617574686f722063616e207265747269657665204e46542e000000600082015250565b60006131c2601d83612a49565b91506131cd8261318c565b602082019050919050565b600060208201905081810360008301526131f1816131b5565b9050919050565b7f4e465420697320696e2041756374696f6e20486f7573652e0000000000000000600082015250565b600061322e601883612a49565b9150613239826131f8565b602082019050919050565b6000602082019050818103600083015261325d81613221565b9050919050565b7f4e46542068617320616c7265616479206265656e2072657475726e65642e0000600082015250565b600061329a601e83612a49565b91506132a582613264565b602082019050919050565b600060208201905081810360008301526132c98161328d565b9050919050565b7f4e465420686173206265656e20736f6c642e0000000000000000000000000000600082015250565b6000613306601283612a49565b9150613311826132d0565b602082019050919050565b60006020820190508181036000830152613335816132f9565b9050919050565b600060408201905061335160008301856126cb565b61335e6020830184612792565b9392505050565b7f4f776e61626c653a206e6577206f776e657220697320746865207a65726f206160008201527f6464726573730000000000000000000000000000000000000000000000000000602082015250565b60006133c1602683612a49565b91506133cc82613365565b604082019050919050565b600060208201905081810360008301526133f0816133b4565b9050919050565b600060608201905061340c60008301866126cb565b61341960208301856126cb565b61342660408301846126cb565b949350505050565b7f5061757361626c653a206e6f7420706175736564000000000000000000000000600082015250565b6000613464601483612a49565b915061346f8261342e565b602082019050919050565b6000602082019050818103600083015261349381613457565b9050919050565b60006040820190506134af6000830185612792565b6134bc60208301846126cb565b9392505050565b6134cc816127bc565b81146134d757600080fd5b50565b6000815190506134e9816134c3565b92915050565b600060208284031215613505576135046126f5565b5b6000613513848285016134da565b91505092915050565b7f496e697469616c697a61626c653a20636f6e7472616374206973206e6f74206960008201527f6e697469616c697a696e67000000000000000000000000000000000000000000602082015250565b6000613578602b83612a49565b91506135838261351c565b604082019050919050565b600060208201905081810360008301526135a78161356b565b9050919050565b7f41756374696f6e206861736e277420626567756e000000000000000000000000600082015250565b60006135e4601483612a49565b91506135ef826135ae565b602082019050919050565b60006020820190508181036000830152613613816135d7565b9050919050565b7f41756374696f6e2068617320616c7265616479206265656e20736574746c6564600082015250565b6000613650602083612a49565b915061365b8261361a565b602082019050919050565b6000602082019050818103600083015261367f81613643565b9050919050565b7f41756374696f6e206861736e277420636f6d706c657465640000000000000000600082015250565b60006136bc601883612a49565b91506136c782613686565b602082019050919050565b600060208201905081810360008301526136eb816136af565b9050919050565b600061370d61370861370384612760565b612c30565b612760565b9050919050565b600061371f826136f2565b9050919050565b600061373182613714565b9050919050565b61374181613726565b82525050565b600060608201905061375c6000830186612792565b6137696020830185613738565b61377660408301846126cb565b949350505050565b60006040820190506137936000830185613738565b6137a060208301846126cb565b9392505050565b7f4e6f20746f6b656e20696e206261736b65742100000000000000000000000000600082015250565b60006137dd601383612a49565b91506137e8826137a7565b602082019050919050565b6000602082019050818103600083015261380c816137d0565b9050919050565b7f416c6c20746f6b656e732065697468657220726574726965766564206f72207360008201527f6f6c642100000000000000000000000000000000000000000000000000000000602082015250565b600061386f602483612a49565b915061387a82613813565b604082019050919050565b6000602082019050818103600083015261389e81613862565b9050919050565b7f4e487b7100000000000000000000000000000000000000000000000000000000600052604160045260246000fd5b600081519050919050565b600081905092915050565b60005b838110156139085780820151818401526020810190506138ed565b83811115613917576000848401525b50505050565b6000613928826138d4565b61393281856138df565b93506139428185602086016138ea565b80840191505092915050565b600061395a828461391d565b915081905092915050565b6000819050919050565b61398061397b826126c1565b613965565b82525050565b60008160601b9050919050565b600061399e82613986565b9050919050565b60006139b082613993565b9050919050565b6139c86139c382612780565b6139a5565b82525050565b60006139da828661396f565b6020820191506139ea82856139b7565b6014820191506139fa828461396f565b602082019150819050949350505050565b6000613a16826126c1565b9150613a21836126c1565b925082613a3157613a30612e53565b5b82820690509291505056fea26469706673582212202d34e1dc6bb18ca9d671d35404d9757077b62e2d9d83a8f9670718d118b3e5b664736f6c63430008090033",
  "linkReferences": {},
  "deployedLinkReferences": {}
}